{
  "_format": "hh-sol-artifact-1",
  "contractName": "Pfx",
  "sourceName": "contracts/PFX.sol",
  "abi": [
    {
      "inputs": [
        {
          "internalType": "address",
          "name": "_devAddress",
          "type": "address"
        }
      ],
      "stateMutability": "nonpayable",
      "type": "constructor"
    },
    {
      "anonymous": false,
      "inputs": [
        {
          "indexed": true,
          "internalType": "address",
          "name": "owner",
          "type": "address"
        },
        {
          "indexed": true,
          "internalType": "address",
          "name": "spender",
          "type": "address"
        },
        {
          "indexed": false,
          "internalType": "uint256",
          "name": "amount",
          "type": "uint256"
        }
      ],
      "name": "Approval",
      "type": "event"
    },
    {
      "anonymous": false,
      "inputs": [
        {
          "indexed": true,
          "internalType": "address",
          "name": "delegator",
          "type": "address"
        },
        {
          "indexed": true,
          "internalType": "address",
          "name": "fromDelegate",
          "type": "address"
        },
        {
          "indexed": true,
          "internalType": "address",
          "name": "toDelegate",
          "type": "address"
        }
      ],
      "name": "DelegateChanged",
      "type": "event"
    },
    {
      "anonymous": false,
      "inputs": [
        {
          "indexed": true,
          "internalType": "address",
          "name": "delegate",
          "type": "address"
        },
        {
          "indexed": false,
          "internalType": "uint256",
          "name": "previousBalance",
          "type": "uint256"
        },
        {
          "indexed": false,
          "internalType": "uint256",
          "name": "newBalance",
          "type": "uint256"
        }
      ],
      "name": "DelegateVotesChanged",
      "type": "event"
    },
    {
      "anonymous": false,
      "inputs": [
        {
          "indexed": true,
          "internalType": "address",
          "name": "previousOwner",
          "type": "address"
        },
        {
          "indexed": true,
          "internalType": "address",
          "name": "newOwner",
          "type": "address"
        }
      ],
      "name": "OwnershipTransferred",
      "type": "event"
    },
    {
      "anonymous": false,
      "inputs": [
        {
          "indexed": true,
          "internalType": "address",
          "name": "from",
          "type": "address"
        },
        {
          "indexed": true,
          "internalType": "address",
          "name": "to",
          "type": "address"
        },
        {
          "indexed": false,
          "internalType": "uint256",
          "name": "amount",
          "type": "uint256"
        }
      ],
      "name": "Transfer",
      "type": "event"
    },
    {
      "inputs": [],
      "name": "DELEGATION_TYPEHASH",
      "outputs": [
        {
          "internalType": "bytes32",
          "name": "",
          "type": "bytes32"
        }
      ],
      "stateMutability": "view",
      "type": "function"
    },
    {
      "inputs": [],
      "name": "DOMAIN_TYPEHASH",
      "outputs": [
        {
          "internalType": "bytes32",
          "name": "",
          "type": "bytes32"
        }
      ],
      "stateMutability": "view",
      "type": "function"
    },
    {
      "inputs": [],
      "name": "PERMIT_TYPEHASH",
      "outputs": [
        {
          "internalType": "bytes32",
          "name": "",
          "type": "bytes32"
        }
      ],
      "stateMutability": "view",
      "type": "function"
    },
    {
      "inputs": [
        {
          "internalType": "address",
          "name": "account",
          "type": "address"
        },
        {
          "internalType": "address",
          "name": "spender",
          "type": "address"
        }
      ],
      "name": "allowance",
      "outputs": [
        {
          "internalType": "uint256",
          "name": "",
          "type": "uint256"
        }
      ],
      "stateMutability": "view",
      "type": "function"
    },
    {
      "inputs": [
        {
          "internalType": "address",
          "name": "spender",
          "type": "address"
        },
        {
          "internalType": "uint256",
          "name": "rawAmount",
          "type": "uint256"
        }
      ],
      "name": "approve",
      "outputs": [
        {
          "internalType": "bool",
          "name": "",
          "type": "bool"
        }
      ],
      "stateMutability": "nonpayable",
      "type": "function"
    },
    {
      "inputs": [
        {
          "internalType": "address",
          "name": "account",
          "type": "address"
        }
      ],
      "name": "balanceOf",
      "outputs": [
        {
          "internalType": "uint256",
          "name": "",
          "type": "uint256"
        }
      ],
      "stateMutability": "view",
      "type": "function"
    },
    {
      "inputs": [],
      "name": "burnFee",
      "outputs": [
        {
          "internalType": "uint96",
          "name": "",
          "type": "uint96"
        }
      ],
      "stateMutability": "view",
      "type": "function"
    },
    {
      "inputs": [],
      "name": "chargeDevFees",
      "outputs": [
        {
          "internalType": "bool",
          "name": "",
          "type": "bool"
        }
      ],
      "stateMutability": "view",
      "type": "function"
    },
    {
      "inputs": [
        {
          "internalType": "address",
          "name": "",
          "type": "address"
        },
        {
          "internalType": "uint32",
          "name": "",
          "type": "uint32"
        }
      ],
      "name": "checkpoints",
      "outputs": [
        {
          "internalType": "uint32",
          "name": "fromBlock",
          "type": "uint32"
        },
        {
          "internalType": "uint96",
          "name": "votes",
          "type": "uint96"
        }
      ],
      "stateMutability": "view",
      "type": "function"
    },
    {
      "inputs": [],
      "name": "decimals",
      "outputs": [
        {
          "internalType": "uint8",
          "name": "",
          "type": "uint8"
        }
      ],
      "stateMutability": "view",
      "type": "function"
    },
    {
      "inputs": [
        {
          "internalType": "address",
          "name": "delegatee",
          "type": "address"
        }
      ],
      "name": "delegate",
      "outputs": [],
      "stateMutability": "nonpayable",
      "type": "function"
    },
    {
      "inputs": [
        {
          "internalType": "address",
          "name": "delegatee",
          "type": "address"
        },
        {
          "internalType": "uint256",
          "name": "nonce",
          "type": "uint256"
        },
        {
          "internalType": "uint256",
          "name": "expiry",
          "type": "uint256"
        },
        {
          "internalType": "uint8",
          "name": "v",
          "type": "uint8"
        },
        {
          "internalType": "bytes32",
          "name": "r",
          "type": "bytes32"
        },
        {
          "internalType": "bytes32",
          "name": "s",
          "type": "bytes32"
        }
      ],
      "name": "delegateBySig",
      "outputs": [],
      "stateMutability": "nonpayable",
      "type": "function"
    },
    {
      "inputs": [
        {
          "internalType": "address",
          "name": "",
          "type": "address"
        }
      ],
      "name": "delegates",
      "outputs": [
        {
          "internalType": "address",
          "name": "",
          "type": "address"
        }
      ],
      "stateMutability": "view",
      "type": "function"
    },
    {
      "inputs": [],
      "name": "devAddress",
      "outputs": [
        {
          "internalType": "address",
          "name": "",
          "type": "address"
        }
      ],
      "stateMutability": "view",
      "type": "function"
    },
    {
      "inputs": [],
      "name": "devFee",
      "outputs": [
        {
          "internalType": "uint96",
          "name": "",
          "type": "uint96"
        }
      ],
      "stateMutability": "view",
      "type": "function"
    },
    {
      "inputs": [
        {
          "internalType": "address",
          "name": "account",
          "type": "address"
        }
      ],
      "name": "excludeDst",
      "outputs": [],
      "stateMutability": "nonpayable",
      "type": "function"
    },
    {
      "inputs": [
        {
          "internalType": "address",
          "name": "account",
          "type": "address"
        }
      ],
      "name": "excludeSrc",
      "outputs": [],
      "stateMutability": "nonpayable",
      "type": "function"
    },
    {
      "inputs": [],
      "name": "geUnlockTime",
      "outputs": [
        {
          "internalType": "uint256",
          "name": "",
          "type": "uint256"
        }
      ],
      "stateMutability": "view",
      "type": "function"
    },
    {
      "inputs": [
        {
          "internalType": "address",
          "name": "account",
          "type": "address"
        }
      ],
      "name": "getCurrentVotes",
      "outputs": [
        {
          "internalType": "uint96",
          "name": "",
          "type": "uint96"
        }
      ],
      "stateMutability": "view",
      "type": "function"
    },
    {
      "inputs": [
        {
          "internalType": "address",
          "name": "account",
          "type": "address"
        },
        {
          "internalType": "uint256",
          "name": "blockNumber",
          "type": "uint256"
        }
      ],
      "name": "getPriorVotes",
      "outputs": [
        {
          "internalType": "uint96",
          "name": "",
          "type": "uint96"
        }
      ],
      "stateMutability": "view",
      "type": "function"
    },
    {
      "inputs": [
        {
          "internalType": "address",
          "name": "account",
          "type": "address"
        }
      ],
      "name": "includeDst",
      "outputs": [],
      "stateMutability": "nonpayable",
      "type": "function"
    },
    {
      "inputs": [
        {
          "internalType": "address",
          "name": "account",
          "type": "address"
        }
      ],
      "name": "includeSrc",
      "outputs": [],
      "stateMutability": "nonpayable",
      "type": "function"
    },
    {
      "inputs": [],
      "name": "initialSupply",
      "outputs": [
        {
          "internalType": "uint256",
          "name": "",
          "type": "uint256"
        }
      ],
      "stateMutability": "view",
      "type": "function"
    },
    {
      "inputs": [],
      "name": "isBurning",
      "outputs": [
        {
          "internalType": "bool",
          "name": "",
          "type": "bool"
        }
      ],
      "stateMutability": "view",
      "type": "function"
    },
    {
      "inputs": [
        {
          "internalType": "address",
          "name": "",
          "type": "address"
        }
      ],
      "name": "isExcludedDst",
      "outputs": [
        {
          "internalType": "bool",
          "name": "",
          "type": "bool"
        }
      ],
      "stateMutability": "view",
      "type": "function"
    },
    {
      "inputs": [
        {
          "internalType": "address",
          "name": "",
          "type": "address"
        }
      ],
      "name": "isExcludedSrc",
      "outputs": [
        {
          "internalType": "bool",
          "name": "",
          "type": "bool"
        }
      ],
      "stateMutability": "view",
      "type": "function"
    },
    {
      "inputs": [
        {
          "internalType": "uint256",
          "name": "time",
          "type": "uint256"
        }
      ],
      "name": "lock",
      "outputs": [],
      "stateMutability": "nonpayable",
      "type": "function"
    },
    {
      "inputs": [],
      "name": "maximumBurnFee",
      "outputs": [
        {
          "internalType": "uint96",
          "name": "",
          "type": "uint96"
        }
      ],
      "stateMutability": "view",
      "type": "function"
    },
    {
      "inputs": [],
      "name": "maximumDevFee",
      "outputs": [
        {
          "internalType": "uint96",
          "name": "",
          "type": "uint96"
        }
      ],
      "stateMutability": "view",
      "type": "function"
    },
    {
      "inputs": [],
      "name": "name",
      "outputs": [
        {
          "internalType": "string",
          "name": "",
          "type": "string"
        }
      ],
      "stateMutability": "view",
      "type": "function"
    },
    {
      "inputs": [
        {
          "internalType": "address",
          "name": "",
          "type": "address"
        }
      ],
      "name": "nonces",
      "outputs": [
        {
          "internalType": "uint256",
          "name": "",
          "type": "uint256"
        }
      ],
      "stateMutability": "view",
      "type": "function"
    },
    {
      "inputs": [
        {
          "internalType": "address",
          "name": "",
          "type": "address"
        }
      ],
      "name": "numCheckpoints",
      "outputs": [
        {
          "internalType": "uint32",
          "name": "",
          "type": "uint32"
        }
      ],
      "stateMutability": "view",
      "type": "function"
    },
    {
      "inputs": [],
      "name": "owner",
      "outputs": [
        {
          "internalType": "address",
          "name": "",
          "type": "address"
        }
      ],
      "stateMutability": "view",
      "type": "function"
    },
    {
      "inputs": [
        {
          "internalType": "address",
          "name": "owner",
          "type": "address"
        },
        {
          "internalType": "address",
          "name": "spender",
          "type": "address"
        },
        {
          "internalType": "uint256",
          "name": "rawAmount",
          "type": "uint256"
        },
        {
          "internalType": "uint256",
          "name": "deadline",
          "type": "uint256"
        },
        {
          "internalType": "uint8",
          "name": "v",
          "type": "uint8"
        },
        {
          "internalType": "bytes32",
          "name": "r",
          "type": "bytes32"
        },
        {
          "internalType": "bytes32",
          "name": "s",
          "type": "bytes32"
        }
      ],
      "name": "permit",
      "outputs": [],
      "stateMutability": "nonpayable",
      "type": "function"
    },
    {
      "inputs": [],
      "name": "renounceOwnership",
      "outputs": [],
      "stateMutability": "nonpayable",
      "type": "function"
    },
    {
      "inputs": [
        {
          "internalType": "uint96",
          "name": "_burnFee",
          "type": "uint96"
        }
      ],
      "name": "setBurnFee",
      "outputs": [],
      "stateMutability": "nonpayable",
      "type": "function"
    },
    {
      "inputs": [
        {
          "internalType": "uint96",
          "name": "_devFee",
          "type": "uint96"
        }
      ],
      "name": "setDevFee",
      "outputs": [],
      "stateMutability": "nonpayable",
      "type": "function"
    },
    {
      "inputs": [],
      "name": "startBurning",
      "outputs": [],
      "stateMutability": "nonpayable",
      "type": "function"
    },
    {
      "inputs": [],
      "name": "startDevFees",
      "outputs": [],
      "stateMutability": "nonpayable",
      "type": "function"
    },
    {
      "inputs": [],
      "name": "stopBurning",
      "outputs": [],
      "stateMutability": "nonpayable",
      "type": "function"
    },
    {
      "inputs": [],
      "name": "stopDevFees",
      "outputs": [],
      "stateMutability": "nonpayable",
      "type": "function"
    },
    {
      "inputs": [],
      "name": "symbol",
      "outputs": [
        {
          "internalType": "string",
          "name": "",
          "type": "string"
        }
      ],
      "stateMutability": "view",
      "type": "function"
    },
    {
      "inputs": [],
      "name": "totalSupply",
      "outputs": [
        {
          "internalType": "uint256",
          "name": "",
          "type": "uint256"
        }
      ],
      "stateMutability": "view",
      "type": "function"
    },
    {
      "inputs": [
        {
          "internalType": "address",
          "name": "dst",
          "type": "address"
        },
        {
          "internalType": "uint256",
          "name": "rawAmount",
          "type": "uint256"
        }
      ],
      "name": "transfer",
      "outputs": [
        {
          "internalType": "bool",
          "name": "",
          "type": "bool"
        }
      ],
      "stateMutability": "nonpayable",
      "type": "function"
    },
    {
      "inputs": [
        {
          "internalType": "address",
          "name": "src",
          "type": "address"
        },
        {
          "internalType": "address",
          "name": "dst",
          "type": "address"
        },
        {
          "internalType": "uint256",
          "name": "rawAmount",
          "type": "uint256"
        }
      ],
      "name": "transferFrom",
      "outputs": [
        {
          "internalType": "bool",
          "name": "",
          "type": "bool"
        }
      ],
      "stateMutability": "nonpayable",
      "type": "function"
    },
    {
      "inputs": [
        {
          "internalType": "address",
          "name": "newOwner",
          "type": "address"
        }
      ],
      "name": "transferOwnership",
      "outputs": [],
      "stateMutability": "nonpayable",
      "type": "function"
    },
    {
      "inputs": [],
      "name": "unlock",
      "outputs": [],
      "stateMutability": "nonpayable",
      "type": "function"
    }
  ],
  "bytecode": "0x60806040523480156200001157600080fd5b50604051620057cc380380620057cc833981810160405281019062000037919062000448565b6000620000496200042960201b60201c565b9050806000806101000a81548173ffffffffffffffffffffffffffffffffffffffff021916908373ffffffffffffffffffffffffffffffffffffffff1602179055508073ffffffffffffffffffffffffffffffffffffffff16600073ffffffffffffffffffffffffffffffffffffffff167f8be0079c531659141344cd1fd0a4f28419497f9722a3daafe3b4186f6b6457e060405160405180910390a3506ae629bab9863d483e400000600960008373ffffffffffffffffffffffffffffffffffffffff1673ffffffffffffffffffffffffffffffffffffffff16815260200190815260200160002060006101000a8154816bffffffffffffffffffffffff02191690836bffffffffffffffffffffffff16021790555080600560006101000a81548173ffffffffffffffffffffffffffffffffffffffff021916908373ffffffffffffffffffffffffffffffffffffffff1602179055506ae629bab9863d483e400000600381905550610172600460006101000a8154816bffffffffffffffffffffffff02191690836bffffffffffffffffffffffff160217905550610d056004600c6101000a8154816bffffffffffffffffffffffff02191690836bffffffffffffffffffffffff1602179055506001600560146101000a81548160ff0219169083151502179055506001600560156101000a81548160ff0219169083151502179055506001600660003373ffffffffffffffffffffffffffffffffffffffff1673ffffffffffffffffffffffffffffffffffffffff16815260200190815260200160002060006101000a81548160ff0219169083151502179055506001600660008373ffffffffffffffffffffffffffffffffffffffff1673ffffffffffffffffffffffffffffffffffffffff16815260200190815260200160002060006101000a81548160ff0219169083151502179055506001600760003373ffffffffffffffffffffffffffffffffffffffff1673ffffffffffffffffffffffffffffffffffffffff16815260200190815260200160002060006101000a81548160ff0219169083151502179055506001600760008373ffffffffffffffffffffffffffffffffffffffff1673ffffffffffffffffffffffffffffffffffffffff16815260200190815260200160002060006101000a81548160ff0219169083151502179055508073ffffffffffffffffffffffffffffffffffffffff16600073ffffffffffffffffffffffffffffffffffffffff167fddf252ad1be2c89b69c2b068fc378daa952ba7f163c4a11628f55a4df523b3ef6ae629bab9863d483e4000006040516200041a919062000485565b60405180910390a350620004fa565b600033905090565b6000815190506200044281620004e0565b92915050565b6000602082840312156200045b57600080fd5b60006200046b8482850162000431565b91505092915050565b6200047f81620004d6565b82525050565b60006020820190506200049c600083018462000474565b92915050565b6000620004af82620004b6565b9050919050565b600073ffffffffffffffffffffffffffffffffffffffff82169050919050565b6000819050919050565b620004eb81620004a2565b8114620004f757600080fd5b50565b6152c2806200050a6000396000f3fe608060405234801561001057600080fd5b50600436106102945760003560e01c8063782d6fe111610167578063cc59304c116100ce578063ea0f61d111610087578063ea0f61d1146107c7578063ef43239c146107e5578063f1127ed814610803578063f2fde38b14610834578063fa5fb38014610850578063fce589d81461085a57610294565b8063cc59304c14610707578063d4157b6614610725578063d505accf14610741578063dd4670641461075d578063dd62ed3e14610779578063e7a324dc146107a957610294565b8063b3ed1bd611610120578063b3ed1bd614610635578063b4b5ea5714610665578063b6c5232414610695578063bb635a39146106b3578063bd58e451146106cf578063c3cda520146106eb57610294565b8063782d6fe11461055f5780637ecebe001461058f5780638da5cb5b146105bf57806395d89b41146105dd578063a69df4b5146105fb578063a9059cbb1461060557610294565b80633ad10ef61161020b5780636827e764116101c45780636827e764146104b15780636fcfff45146104cf57806370a08231146104ff578063715018a61461052f57806374576db61461053957806376b06c201461054357610294565b80633ad10ef6146103dd57806343e62242146103fb5780635744c95514610417578063587cde1e146104475780635b7c8210146104775780635c19a95c1461049557610294565b806323b872dd1161025d57806323b872dd1461033f57806330adf81f1461036f578063313ce5671461038d57806332144f0d146103ab578063378dc3dc146103b557806339582ee8146103d357610294565b80624b19681461029957806306fdde03146102b5578063095ea7b3146102d357806318160ddd1461030357806320606b7014610321575b600080fd5b6102b360048036038101906102ae91906140c3565b610878565b005b6102bd610968565b6040516102ca9190614afe565b60405180910390f35b6102ed60048036038101906102e89190614215565b6109a1565b6040516102fa9190614998565b60405180910390f35b61030b610b34565b6040516103189190614ce0565b60405180910390f35b610329610b3a565b60405161033691906149b3565b60405180910390f35b61035960048036038101906103549190614128565b610b5e565b6040516103669190614998565b60405180910390f35b610377610df2565b60405161038491906149b3565b60405180910390f35b610395610e16565b6040516103a29190614d3f565b60405180910390f35b6103b3610e1b565b005b6103bd610ecd565b6040516103ca9190614ce0565b60405180910390f35b6103db610edc565b005b6103e5610f8e565b6040516103f2919061497d565b60405180910390f35b6104156004803603810190610410919061433f565b610fb4565b005b610431600480360381019061042c91906140c3565b6110dc565b60405161043e9190614998565b60405180910390f35b610461600480360381019061045c91906140c3565b6110fc565b60405161046e919061497d565b60405180910390f35b61047f61112f565b60405161048c9190614998565b60405180910390f35b6104af60048036038101906104aa91906140c3565b611142565b005b6104b961114f565b6040516104c69190614d75565b60405180910390f35b6104e960048036038101906104e491906140c3565b61116d565b6040516104f69190614cfb565b60405180910390f35b610519600480360381019061051491906140c3565b611190565b6040516105269190614ce0565b60405180910390f35b6105376111ff565b005b610541611352565b005b61055d6004803603810190610558919061433f565b611404565b005b61057960048036038101906105749190614215565b61152d565b6040516105869190614d75565b60405180910390f35b6105a960048036038101906105a491906140c3565b61193c565b6040516105b69190614ce0565b60405180910390f35b6105c7611954565b6040516105d4919061497d565b60405180910390f35b6105e561197d565b6040516105f29190614afe565b60405180910390f35b6106036119b6565b005b61061f600480360381019061061a9190614215565b611b8a565b60405161062c9190614998565b60405180910390f35b61064f600480360381019061064a91906140c3565b611bc7565b60405161065c9190614998565b60405180910390f35b61067f600480360381019061067a91906140c3565b611be7565b60405161068c9190614d75565b60405180910390f35b61069d611cd5565b6040516106aa9190614ce0565b60405180910390f35b6106cd60048036038101906106c891906140c3565b611cdf565b005b6106e960048036038101906106e491906140c3565b611dcf565b005b61070560048036038101906107009190614251565b611ebf565b005b61070f61217c565b60405161071c9190614998565b60405180910390f35b61073f600480360381019061073a91906140c3565b61218f565b005b61075b60048036038101906107569190614177565b61227f565b005b61077760048036038101906107729190614316565b6126eb565b005b610793600480360381019061078e91906140ec565b6128a9565b6040516107a09190614ce0565b60405180910390f35b6107b1612956565b6040516107be91906149b3565b60405180910390f35b6107cf61297a565b6040516107dc9190614d75565b60405180910390f35b6107ed61297f565b6040516107fa9190614d75565b60405180910390f35b61081d600480360381019061081891906142da565b612985565b60405161082b929190614d16565b60405180910390f35b61084e600480360381019061084991906140c3565b6129de565b005b610858612ba0565b005b610862612c52565b60405161086f9190614d75565b60405180910390f35b610880612c70565b73ffffffffffffffffffffffffffffffffffffffff1660008054906101000a900473ffffffffffffffffffffffffffffffffffffffff1673ffffffffffffffffffffffffffffffffffffffff161461090d576040517f08c379a000000000000000000000000000000000000000000000000000000000815260040161090490614c20565b60405180910390fd5b6000600660008373ffffffffffffffffffffffffffffffffffffffff1673ffffffffffffffffffffffffffffffffffffffff16815260200190815260200160002060006101000a81548160ff02191690831515021790555050565b6040518060400160405280600881526020017f506f6c6172666f7800000000000000000000000000000000000000000000000081525081565b6000807fffffffffffffffffffffffffffffffffffffffffffffffffffffffffffffffff8314156109f4577fffffffffffffffffffffffffffffffffffffffffffffffffffffffffffffffff9050610a19565b610a1683604051806060016040528060248152602001614f5260249139612c78565b90505b80600860003373ffffffffffffffffffffffffffffffffffffffff1673ffffffffffffffffffffffffffffffffffffffff16815260200190815260200160002060008673ffffffffffffffffffffffffffffffffffffffff1673ffffffffffffffffffffffffffffffffffffffff16815260200190815260200160002060006101000a8154816bffffffffffffffffffffffff02191690836bffffffffffffffffffffffff1602179055508373ffffffffffffffffffffffffffffffffffffffff163373ffffffffffffffffffffffffffffffffffffffff167f8c5be1e5ebec7d5bd14f71427d1e84f3dd0314c0f7b2291e5b200ac8c7c3b92583604051610b219190614d5a565b60405180910390a3600191505092915050565b60035481565b7f8cad95687ba82c2ce50e74f7b754645e5117c3a5bec8151c0726d5857980a86681565b6000803390506000600860008773ffffffffffffffffffffffffffffffffffffffff1673ffffffffffffffffffffffffffffffffffffffff16815260200190815260200160002060008373ffffffffffffffffffffffffffffffffffffffff1673ffffffffffffffffffffffffffffffffffffffff16815260200190815260200160002060009054906101000a90046bffffffffffffffffffffffff1690506000610c2185604051806060016040528060248152602001614f5260249139612c78565b90508673ffffffffffffffffffffffffffffffffffffffff168373ffffffffffffffffffffffffffffffffffffffff1614158015610c9b57507fffffffffffffffffffffffffffffffffffffffffffffffffffffffffffffffff6bffffffffffffffffffffffff16826bffffffffffffffffffffffff1614155b15610dd9576000610cc583836040518060600160405280603c8152602001615251603c9139612cd6565b905080600860008a73ffffffffffffffffffffffffffffffffffffffff1673ffffffffffffffffffffffffffffffffffffffff16815260200190815260200160002060008673ffffffffffffffffffffffffffffffffffffffff1673ffffffffffffffffffffffffffffffffffffffff16815260200190815260200160002060006101000a8154816bffffffffffffffffffffffff02191690836bffffffffffffffffffffffff1602179055508373ffffffffffffffffffffffffffffffffffffffff168873ffffffffffffffffffffffffffffffffffffffff167f8c5be1e5ebec7d5bd14f71427d1e84f3dd0314c0f7b2291e5b200ac8c7c3b92583604051610dcf9190614d5a565b60405180910390a3505b610de4878783612d47565b600193505050509392505050565b7f6e71edae12b1b97f4d1f60370fef10105fa2faae0126114a169c64845d6126c981565b601281565b610e23612c70565b73ffffffffffffffffffffffffffffffffffffffff1660008054906101000a900473ffffffffffffffffffffffffffffffffffffffff1673ffffffffffffffffffffffffffffffffffffffff1614610eb0576040517f08c379a0000000000000000000000000000000000000000000000000000000008152600401610ea790614c20565b60405180910390fd5b6000600560146101000a81548160ff021916908315150217905550565b6ae629bab9863d483e40000081565b610ee4612c70565b73ffffffffffffffffffffffffffffffffffffffff1660008054906101000a900473ffffffffffffffffffffffffffffffffffffffff1673ffffffffffffffffffffffffffffffffffffffff1614610f71576040517f08c379a0000000000000000000000000000000000000000000000000000000008152600401610f6890614c20565b60405180910390fd5b6000600560156101000a81548160ff021916908315150217905550565b600560009054906101000a900473ffffffffffffffffffffffffffffffffffffffff1681565b610fbc612c70565b73ffffffffffffffffffffffffffffffffffffffff1660008054906101000a900473ffffffffffffffffffffffffffffffffffffffff1673ffffffffffffffffffffffffffffffffffffffff1614611049576040517f08c379a000000000000000000000000000000000000000000000000000000000815260040161104090614c20565b60405180910390fd5b60146bffffffffffffffffffffffff16816bffffffffffffffffffffffff16116110a8576040517f08c379a000000000000000000000000000000000000000000000000000000000815260040161109f90614ca0565b60405180910390fd5b80600460006101000a8154816bffffffffffffffffffffffff02191690836bffffffffffffffffffffffff16021790555050565b60066020528060005260406000206000915054906101000a900460ff1681565b600a6020528060005260406000206000915054906101000a900473ffffffffffffffffffffffffffffffffffffffff1681565b600560149054906101000a900460ff1681565b61114c3382612fac565b50565b6004600c9054906101000a90046bffffffffffffffffffffffff1681565b600c6020528060005260406000206000915054906101000a900463ffffffff1681565b6000600960008373ffffffffffffffffffffffffffffffffffffffff1673ffffffffffffffffffffffffffffffffffffffff16815260200190815260200160002060009054906101000a90046bffffffffffffffffffffffff166bffffffffffffffffffffffff169050919050565b611207612c70565b73ffffffffffffffffffffffffffffffffffffffff1660008054906101000a900473ffffffffffffffffffffffffffffffffffffffff1673ffffffffffffffffffffffffffffffffffffffff1614611294576040517f08c379a000000000000000000000000000000000000000000000000000000000815260040161128b90614c20565b60405180910390fd5b600073ffffffffffffffffffffffffffffffffffffffff1660008054906101000a900473ffffffffffffffffffffffffffffffffffffffff1673ffffffffffffffffffffffffffffffffffffffff167f8be0079c531659141344cd1fd0a4f28419497f9722a3daafe3b4186f6b6457e060405160405180910390a360008060006101000a81548173ffffffffffffffffffffffffffffffffffffffff021916908373ffffffffffffffffffffffffffffffffffffffff160217905550565b61135a612c70565b73ffffffffffffffffffffffffffffffffffffffff1660008054906101000a900473ffffffffffffffffffffffffffffffffffffffff1673ffffffffffffffffffffffffffffffffffffffff16146113e7576040517f08c379a00000000000000000000000000000000000000000000000000000000081526004016113de90614c20565b60405180910390fd5b6001600560146101000a81548160ff021916908315150217905550565b61140c612c70565b73ffffffffffffffffffffffffffffffffffffffff1660008054906101000a900473ffffffffffffffffffffffffffffffffffffffff1673ffffffffffffffffffffffffffffffffffffffff1614611499576040517f08c379a000000000000000000000000000000000000000000000000000000000815260040161149090614c20565b60405180910390fd5b6103e86bffffffffffffffffffffffff16816bffffffffffffffffffffffff16116114f9576040517f08c379a00000000000000000000000000000000000000000000000000000000081526004016114f090614c40565b60405180910390fd5b806004600c6101000a8154816bffffffffffffffffffffffff02191690836bffffffffffffffffffffffff16021790555050565b6000438210611571576040517f08c379a000000000000000000000000000000000000000000000000000000000815260040161156890614c00565b60405180910390fd5b6000600c60008573ffffffffffffffffffffffffffffffffffffffff1673ffffffffffffffffffffffffffffffffffffffff16815260200190815260200160002060009054906101000a900463ffffffff16905060008163ffffffff1614156115de576000915050611936565b82600b60008673ffffffffffffffffffffffffffffffffffffffff1673ffffffffffffffffffffffffffffffffffffffff16815260200190815260200160002060006001840363ffffffff1663ffffffff16815260200190815260200160002060000160009054906101000a900463ffffffff1663ffffffff16116116e057600b60008573ffffffffffffffffffffffffffffffffffffffff1673ffffffffffffffffffffffffffffffffffffffff16815260200190815260200160002060006001830363ffffffff1663ffffffff16815260200190815260200160002060000160049054906101000a90046bffffffffffffffffffffffff16915050611936565b82600b60008673ffffffffffffffffffffffffffffffffffffffff1673ffffffffffffffffffffffffffffffffffffffff16815260200190815260200160002060008063ffffffff16815260200190815260200160002060000160009054906101000a900463ffffffff1663ffffffff161115611761576000915050611936565b6000806001830390505b8163ffffffff168163ffffffff1611156118b8576000600283830363ffffffff168161179357fe5b04820390506117a0614017565b600b60008973ffffffffffffffffffffffffffffffffffffffff1673ffffffffffffffffffffffffffffffffffffffff16815260200190815260200160002060008363ffffffff1663ffffffff1681526020019081526020016000206040518060400160405290816000820160009054906101000a900463ffffffff1663ffffffff1663ffffffff1681526020016000820160049054906101000a90046bffffffffffffffffffffffff166bffffffffffffffffffffffff166bffffffffffffffffffffffff1681525050905086816000015163ffffffff16141561189057806020015195505050505050611936565b86816000015163ffffffff1610156118aa578193506118b1565b6001820392505b505061176b565b600b60008773ffffffffffffffffffffffffffffffffffffffff1673ffffffffffffffffffffffffffffffffffffffff16815260200190815260200160002060008363ffffffff1663ffffffff16815260200190815260200160002060000160049054906101000a90046bffffffffffffffffffffffff1693505050505b92915050565b600d6020528060005260406000206000915090505481565b60008060009054906101000a900473ffffffffffffffffffffffffffffffffffffffff16905090565b6040518060400160405280600381526020017f504658000000000000000000000000000000000000000000000000000000000081525081565b3373ffffffffffffffffffffffffffffffffffffffff16600160009054906101000a900473ffffffffffffffffffffffffffffffffffffffff1673ffffffffffffffffffffffffffffffffffffffff1614611a46576040517f08c379a0000000000000000000000000000000000000000000000000000000008152600401611a3d90614cc0565b60405180910390fd5b6002544211611a8a576040517f08c379a0000000000000000000000000000000000000000000000000000000008152600401611a8190614c80565b60405180910390fd5b600160009054906101000a900473ffffffffffffffffffffffffffffffffffffffff1673ffffffffffffffffffffffffffffffffffffffff1660008054906101000a900473ffffffffffffffffffffffffffffffffffffffff1673ffffffffffffffffffffffffffffffffffffffff167f8be0079c531659141344cd1fd0a4f28419497f9722a3daafe3b4186f6b6457e060405160405180910390a3600160009054906101000a900473ffffffffffffffffffffffffffffffffffffffff166000806101000a81548173ffffffffffffffffffffffffffffffffffffffff021916908373ffffffffffffffffffffffffffffffffffffffff160217905550565b600080611baf8360405180606001604052806025815260200161516c60259139612c78565b9050611bbc338583612d47565b600191505092915050565b60076020528060005260406000206000915054906101000a900460ff1681565b600080600c60008473ffffffffffffffffffffffffffffffffffffffff1673ffffffffffffffffffffffffffffffffffffffff16815260200190815260200160002060009054906101000a900463ffffffff16905060008163ffffffff1611611c51576000611ccd565b600b60008473ffffffffffffffffffffffffffffffffffffffff1673ffffffffffffffffffffffffffffffffffffffff16815260200190815260200160002060006001830363ffffffff1663ffffffff16815260200190815260200160002060000160049054906101000a90046bffffffffffffffffffffffff165b915050919050565b6000600254905090565b611ce7612c70565b73ffffffffffffffffffffffffffffffffffffffff1660008054906101000a900473ffffffffffffffffffffffffffffffffffffffff1673ffffffffffffffffffffffffffffffffffffffff1614611d74576040517f08c379a0000000000000000000000000000000000000000000000000000000008152600401611d6b90614c20565b60405180910390fd5b6001600760008373ffffffffffffffffffffffffffffffffffffffff1673ffffffffffffffffffffffffffffffffffffffff16815260200190815260200160002060006101000a81548160ff02191690831515021790555050565b611dd7612c70565b73ffffffffffffffffffffffffffffffffffffffff1660008054906101000a900473ffffffffffffffffffffffffffffffffffffffff1673ffffffffffffffffffffffffffffffffffffffff1614611e64576040517f08c379a0000000000000000000000000000000000000000000000000000000008152600401611e5b90614c20565b60405180910390fd5b6000600760008373ffffffffffffffffffffffffffffffffffffffff1673ffffffffffffffffffffffffffffffffffffffff16815260200190815260200160002060006101000a81548160ff02191690831515021790555050565b60007f8cad95687ba82c2ce50e74f7b754645e5117c3a5bec8151c0726d5857980a8666040518060400160405280600881526020017f506f6c6172666f7800000000000000000000000000000000000000000000000081525080519060200120611f2761316c565b30604051602001611f3b9493929190614a74565b60405160208183030381529060405280519060200120905060007fe48329057bfd03d55e49b547132e39cffd9c1820ad7b9d4c5307691425d15adf888888604051602001611f8c9493929190614a2f565b60405160208183030381529060405280519060200120905060008282604051602001611fb9929190614946565b604051602081830303815290604052805190602001209050600060018288888860405160008152602001604052604051611ff69493929190614ab9565b6020604051602081039080840390855afa158015612018573d6000803e3d6000fd5b505050602060405103519050600073ffffffffffffffffffffffffffffffffffffffff168173ffffffffffffffffffffffffffffffffffffffff161415612094576040517f08c379a000000000000000000000000000000000000000000000000000000000815260040161208b90614c60565b60405180910390fd5b600d60008273ffffffffffffffffffffffffffffffffffffffff1673ffffffffffffffffffffffffffffffffffffffff1681526020019081526020016000206000815480929190600101919050558914612123576040517f08c379a000000000000000000000000000000000000000000000000000000000815260040161211a90614b20565b60405180910390fd5b87421115612166576040517f08c379a000000000000000000000000000000000000000000000000000000000815260040161215d90614b80565b60405180910390fd5b612170818b612fac565b50505050505050505050565b600560159054906101000a900460ff1681565b612197612c70565b73ffffffffffffffffffffffffffffffffffffffff1660008054906101000a900473ffffffffffffffffffffffffffffffffffffffff1673ffffffffffffffffffffffffffffffffffffffff1614612224576040517f08c379a000000000000000000000000000000000000000000000000000000000815260040161221b90614c20565b60405180910390fd5b6001600660008373ffffffffffffffffffffffffffffffffffffffff1673ffffffffffffffffffffffffffffffffffffffff16815260200190815260200160002060006101000a81548160ff02191690831515021790555050565b60007fffffffffffffffffffffffffffffffffffffffffffffffffffffffffffffffff8614156122d1577fffffffffffffffffffffffffffffffffffffffffffffffffffffffffffffffff90506122f6565b6122f38660405180606001604052806023815260200161511460239139612c78565b90505b60007f8cad95687ba82c2ce50e74f7b754645e5117c3a5bec8151c0726d5857980a8666040518060400160405280600881526020017f506f6c6172666f780000000000000000000000000000000000000000000000008152508051906020012061235e61316c565b306040516020016123729493929190614a74565b60405160208183030381529060405280519060200120905060007f6e71edae12b1b97f4d1f60370fef10105fa2faae0126114a169c64845d6126c98a8a8a600d60008f73ffffffffffffffffffffffffffffffffffffffff1673ffffffffffffffffffffffffffffffffffffffff1681526020019081526020016000206000815480929190600101919050558b604051602001612414969594939291906149ce565b60405160208183030381529060405280519060200120905060008282604051602001612441929190614946565b60405160208183030381529060405280519060200120905060006001828989896040516000815260200160405260405161247e9493929190614ab9565b6020604051602081039080840390855afa1580156124a0573d6000803e3d6000fd5b505050602060405103519050600073ffffffffffffffffffffffffffffffffffffffff168173ffffffffffffffffffffffffffffffffffffffff16141561251c576040517f08c379a000000000000000000000000000000000000000000000000000000000815260040161251390614bc0565b60405180910390fd5b8b73ffffffffffffffffffffffffffffffffffffffff168173ffffffffffffffffffffffffffffffffffffffff161461258a576040517f08c379a000000000000000000000000000000000000000000000000000000000815260040161258190614ba0565b60405180910390fd5b884211156125cd576040517f08c379a00000000000000000000000000000000000000000000000000000000081526004016125c490614be0565b60405180910390fd5b84600860008e73ffffffffffffffffffffffffffffffffffffffff1673ffffffffffffffffffffffffffffffffffffffff16815260200190815260200160002060008d73ffffffffffffffffffffffffffffffffffffffff1673ffffffffffffffffffffffffffffffffffffffff16815260200190815260200160002060006101000a8154816bffffffffffffffffffffffff02191690836bffffffffffffffffffffffff1602179055508a73ffffffffffffffffffffffffffffffffffffffff168c73ffffffffffffffffffffffffffffffffffffffff167f8c5be1e5ebec7d5bd14f71427d1e84f3dd0314c0f7b2291e5b200ac8c7c3b925876040516126d59190614d5a565b60405180910390a3505050505050505050505050565b6126f3612c70565b73ffffffffffffffffffffffffffffffffffffffff1660008054906101000a900473ffffffffffffffffffffffffffffffffffffffff1673ffffffffffffffffffffffffffffffffffffffff1614612780576040517f08c379a000000000000000000000000000000000000000000000000000000000815260040161277790614c20565b60405180910390fd5b60008054906101000a900473ffffffffffffffffffffffffffffffffffffffff16600160006101000a81548173ffffffffffffffffffffffffffffffffffffffff021916908373ffffffffffffffffffffffffffffffffffffffff16021790555060008060006101000a81548173ffffffffffffffffffffffffffffffffffffffff021916908373ffffffffffffffffffffffffffffffffffffffff160217905550804201600281905550600073ffffffffffffffffffffffffffffffffffffffff1660008054906101000a900473ffffffffffffffffffffffffffffffffffffffff1673ffffffffffffffffffffffffffffffffffffffff167f8be0079c531659141344cd1fd0a4f28419497f9722a3daafe3b4186f6b6457e060405160405180910390a350565b6000600860008473ffffffffffffffffffffffffffffffffffffffff1673ffffffffffffffffffffffffffffffffffffffff16815260200190815260200160002060008373ffffffffffffffffffffffffffffffffffffffff1673ffffffffffffffffffffffffffffffffffffffff16815260200190815260200160002060009054906101000a90046bffffffffffffffffffffffff166bffffffffffffffffffffffff16905092915050565b7fe48329057bfd03d55e49b547132e39cffd9c1820ad7b9d4c5307691425d15adf81565b601481565b6103e881565b600b602052816000526040600020602052806000526040600020600091509150508060000160009054906101000a900463ffffffff16908060000160049054906101000a90046bffffffffffffffffffffffff16905082565b6129e6612c70565b73ffffffffffffffffffffffffffffffffffffffff1660008054906101000a900473ffffffffffffffffffffffffffffffffffffffff1673ffffffffffffffffffffffffffffffffffffffff1614612a73576040517f08c379a0000000000000000000000000000000000000000000000000000000008152600401612a6a90614c20565b60405180910390fd5b600073ffffffffffffffffffffffffffffffffffffffff168173ffffffffffffffffffffffffffffffffffffffff161415612ae3576040517f08c379a0000000000000000000000000000000000000000000000000000000008152600401612ada90614b40565b60405180910390fd5b8073ffffffffffffffffffffffffffffffffffffffff1660008054906101000a900473ffffffffffffffffffffffffffffffffffffffff1673ffffffffffffffffffffffffffffffffffffffff167f8be0079c531659141344cd1fd0a4f28419497f9722a3daafe3b4186f6b6457e060405160405180910390a3806000806101000a81548173ffffffffffffffffffffffffffffffffffffffff021916908373ffffffffffffffffffffffffffffffffffffffff16021790555050565b612ba8612c70565b73ffffffffffffffffffffffffffffffffffffffff1660008054906101000a900473ffffffffffffffffffffffffffffffffffffffff1673ffffffffffffffffffffffffffffffffffffffff1614612c35576040517f08c379a0000000000000000000000000000000000000000000000000000000008152600401612c2c90614c20565b60405180910390fd5b6001600560156101000a81548160ff021916908315150217905550565b600460009054906101000a90046bffffffffffffffffffffffff1681565b600033905090565b60006c0100000000000000000000000083108290612ccc576040517f08c379a0000000000000000000000000000000000000000000000000000000008152600401612cc39190614afe565b60405180910390fd5b5082905092915050565b6000836bffffffffffffffffffffffff16836bffffffffffffffffffffffff1611158290612d3a576040517f08c379a0000000000000000000000000000000000000000000000000000000008152600401612d319190614afe565b60405180910390fd5b5082840390509392505050565b600073ffffffffffffffffffffffffffffffffffffffff168373ffffffffffffffffffffffffffffffffffffffff161415612db7576040517f08c379a0000000000000000000000000000000000000000000000000000000008152600401612dae90614b60565b60405180910390fd5b600660008473ffffffffffffffffffffffffffffffffffffffff1673ffffffffffffffffffffffffffffffffffffffff16815260200190815260200160002060009054906101000a900460ff1680612e585750600760008373ffffffffffffffffffffffffffffffffffffffff1673ffffffffffffffffffffffffffffffffffffffff16815260200190815260200160002060009054906101000a900460ff165b15612e6d57612e68838383613179565b612e79565b612e7883838361334c565b5b8173ffffffffffffffffffffffffffffffffffffffff168373ffffffffffffffffffffffffffffffffffffffff167fddf252ad1be2c89b69c2b068fc378daa952ba7f163c4a11628f55a4df523b3ef83604051612ed69190614d5a565b60405180910390a3612fa7600a60008573ffffffffffffffffffffffffffffffffffffffff1673ffffffffffffffffffffffffffffffffffffffff16815260200190815260200160002060009054906101000a900473ffffffffffffffffffffffffffffffffffffffff16600a60008573ffffffffffffffffffffffffffffffffffffffff1673ffffffffffffffffffffffffffffffffffffffff16815260200190815260200160002060009054906101000a900473ffffffffffffffffffffffffffffffffffffffff168361384a565b505050565b6000600a60008473ffffffffffffffffffffffffffffffffffffffff1673ffffffffffffffffffffffffffffffffffffffff16815260200190815260200160002060009054906101000a900473ffffffffffffffffffffffffffffffffffffffff1690506000600960008573ffffffffffffffffffffffffffffffffffffffff1673ffffffffffffffffffffffffffffffffffffffff16815260200190815260200160002060009054906101000a90046bffffffffffffffffffffffff16905082600a60008673ffffffffffffffffffffffffffffffffffffffff1673ffffffffffffffffffffffffffffffffffffffff16815260200190815260200160002060006101000a81548173ffffffffffffffffffffffffffffffffffffffff021916908373ffffffffffffffffffffffffffffffffffffffff1602179055508273ffffffffffffffffffffffffffffffffffffffff168273ffffffffffffffffffffffffffffffffffffffff168573ffffffffffffffffffffffffffffffffffffffff167f3134e8a2e6d97e929a7e54011ea5485d7d196dd5f0ba4d4ef95803e8e3fc257f60405160405180910390a461316682848361384a565b50505050565b6000804690508091505090565b6131f3600960008573ffffffffffffffffffffffffffffffffffffffff1673ffffffffffffffffffffffffffffffffffffffff16815260200190815260200160002060009054906101000a90046bffffffffffffffffffffffff168260405180606001604052806037815260200161519160379139612cd6565b600960008573ffffffffffffffffffffffffffffffffffffffff1673ffffffffffffffffffffffffffffffffffffffff16815260200190815260200160002060006101000a8154816bffffffffffffffffffffffff02191690836bffffffffffffffffffffffff1602179055506132da600960008473ffffffffffffffffffffffffffffffffffffffff1673ffffffffffffffffffffffffffffffffffffffff16815260200190815260200160002060009054906101000a90046bffffffffffffffffffffffff168260405180606001604052806031815260200161522060319139613b45565b600960008473ffffffffffffffffffffffffffffffffffffffff1673ffffffffffffffffffffffffffffffffffffffff16815260200190815260200160002060006101000a8154816bffffffffffffffffffffffff02191690836bffffffffffffffffffffffff160217905550505050565b6000806133c9600960008773ffffffffffffffffffffffffffffffffffffffff1673ffffffffffffffffffffffffffffffffffffffff16815260200190815260200160002060009054906101000a90046bffffffffffffffffffffffff1684604051806060016040528060378152602001614f7660379139612cd6565b600960008773ffffffffffffffffffffffffffffffffffffffff1673ffffffffffffffffffffffffffffffffffffffff16815260200190815260200160002060006101000a8154816bffffffffffffffffffffffff02191690836bffffffffffffffffffffffff160217905550600560149054906101000a900460ff16156135ab5761348883600460009054906101000a90046bffffffffffffffffffffffff166040518060600160405280602f8152602001615022602f9139613bbb565b9150613504600960008073ffffffffffffffffffffffffffffffffffffffff1673ffffffffffffffffffffffffffffffffffffffff16815260200190815260200160002060009054906101000a90046bffffffffffffffffffffffff1683604051806060016040528060238152602001614fd860239139613b45565b600960008073ffffffffffffffffffffffffffffffffffffffff1673ffffffffffffffffffffffffffffffffffffffff16815260200190815260200160002060006101000a8154816bffffffffffffffffffffffff02191690836bffffffffffffffffffffffff1602179055506135a4600354836bffffffffffffffffffffffff1660405180606001604052806035815260200161513760359139613c46565b6003819055505b600560159054906101000a900460ff1615613712576135e4836004600c9054906101000a90046bffffffffffffffffffffffff16613ca1565b905061368260096000600560009054906101000a900473ffffffffffffffffffffffffffffffffffffffff1673ffffffffffffffffffffffffffffffffffffffff1673ffffffffffffffffffffffffffffffffffffffff16815260200190815260200160002060009054906101000a90046bffffffffffffffffffffffff16826040518060600160405280602b8152602001614fad602b9139613b45565b60096000600560009054906101000a900473ffffffffffffffffffffffffffffffffffffffff1673ffffffffffffffffffffffffffffffffffffffff1673ffffffffffffffffffffffffffffffffffffffff16815260200190815260200160002060006101000a8154816bffffffffffffffffffffffff02191690836bffffffffffffffffffffffff1602179055505b600061375961373a858560405180606001604052806035815260200161507760359139612cd6565b836040518060600160405280603581526020016150df60359139612cd6565b90506137d5600960008773ffffffffffffffffffffffffffffffffffffffff1673ffffffffffffffffffffffffffffffffffffffff16815260200190815260200160002060009054906101000a90046bffffffffffffffffffffffff16826040518060600160405280603581526020016151eb60359139613b45565b600960008773ffffffffffffffffffffffffffffffffffffffff1673ffffffffffffffffffffffffffffffffffffffff16815260200190815260200160002060006101000a8154816bffffffffffffffffffffffff02191690836bffffffffffffffffffffffff160217905550505050505050565b8173ffffffffffffffffffffffffffffffffffffffff168373ffffffffffffffffffffffffffffffffffffffff161415801561389457506000816bffffffffffffffffffffffff16115b15613b4057600073ffffffffffffffffffffffffffffffffffffffff168373ffffffffffffffffffffffffffffffffffffffff16146139ec576000600c60008573ffffffffffffffffffffffffffffffffffffffff1673ffffffffffffffffffffffffffffffffffffffff16815260200190815260200160002060009054906101000a900463ffffffff1690506000808263ffffffff16116139375760006139b3565b600b60008673ffffffffffffffffffffffffffffffffffffffff1673ffffffffffffffffffffffffffffffffffffffff16815260200190815260200160002060006001840363ffffffff1663ffffffff16815260200190815260200160002060000160049054906101000a90046bffffffffffffffffffffffff165b905060006139da8285604051806060016040528060278152602001614ffb60279139612cd6565b90506139e886848484613cce565b5050505b600073ffffffffffffffffffffffffffffffffffffffff168273ffffffffffffffffffffffffffffffffffffffff1614613b3f576000600c60008473ffffffffffffffffffffffffffffffffffffffff1673ffffffffffffffffffffffffffffffffffffffff16815260200190815260200160002060009054906101000a900463ffffffff1690506000808263ffffffff1611613a8a576000613b06565b600b60008573ffffffffffffffffffffffffffffffffffffffff1673ffffffffffffffffffffffffffffffffffffffff16815260200190815260200160002060006001840363ffffffff1663ffffffff16815260200190815260200160002060000160049054906101000a90046bffffffffffffffffffffffff165b90506000613b2d828560405180606001604052806026815260200161505160269139613b45565b9050613b3b85848484613cce565b5050505b5b505050565b6000808385019050846bffffffffffffffffffffffff16816bffffffffffffffffffffffff1610158390613baf576040517f08c379a0000000000000000000000000000000000000000000000000000000008152600401613ba69190614afe565b60405180910390fd5b50809150509392505050565b600080836bffffffffffffffffffffffff16118290613c10576040517f08c379a0000000000000000000000000000000000000000000000000000000008152600401613c079190614afe565b60405180910390fd5b506000836bffffffffffffffffffffffff16856bffffffffffffffffffffffff1681613c3857fe5b049050809150509392505050565b6000838311158290613c8e576040517f08c379a0000000000000000000000000000000000000000000000000000000008152600401613c859190614afe565b60405180910390fd5b5060008385039050809150509392505050565b6000613cc683836040518060600160405280602381526020016151c860239139613bbb565b905092915050565b6000613cf2436040518060600160405280603381526020016150ac60339139613fc1565b905060008463ffffffff16118015613d8757508063ffffffff16600b60008773ffffffffffffffffffffffffffffffffffffffff1673ffffffffffffffffffffffffffffffffffffffff16815260200190815260200160002060006001870363ffffffff1663ffffffff16815260200190815260200160002060000160009054906101000a900463ffffffff1663ffffffff16145b15613e225781600b60008773ffffffffffffffffffffffffffffffffffffffff1673ffffffffffffffffffffffffffffffffffffffff16815260200190815260200160002060006001870363ffffffff1663ffffffff16815260200190815260200160002060000160046101000a8154816bffffffffffffffffffffffff02191690836bffffffffffffffffffffffff160217905550613f6a565b60405180604001604052808263ffffffff168152602001836bffffffffffffffffffffffff16815250600b60008773ffffffffffffffffffffffffffffffffffffffff1673ffffffffffffffffffffffffffffffffffffffff16815260200190815260200160002060008663ffffffff1663ffffffff16815260200190815260200160002060008201518160000160006101000a81548163ffffffff021916908363ffffffff16021790555060208201518160000160046101000a8154816bffffffffffffffffffffffff02191690836bffffffffffffffffffffffff16021790555090505060018401600c60008773ffffffffffffffffffffffffffffffffffffffff1673ffffffffffffffffffffffffffffffffffffffff16815260200190815260200160002060006101000a81548163ffffffff021916908363ffffffff1602179055505b8473ffffffffffffffffffffffffffffffffffffffff167fdec2bacdd2f05b59de34da9b523dff8be42e5e38e818c82fdb0bae774387a7248484604051613fb2929190614d90565b60405180910390a25050505050565b60006401000000008310829061400d576040517f08c379a00000000000000000000000000000000000000000000000000000000081526004016140049190614afe565b60405180910390fd5b5082905092915050565b6040518060400160405280600063ffffffff16815260200160006bffffffffffffffffffffffff1681525090565b60008135905061405481614ec7565b92915050565b60008135905061406981614ede565b92915050565b60008135905061407e81614ef5565b92915050565b60008135905061409381614f0c565b92915050565b6000813590506140a881614f23565b92915050565b6000813590506140bd81614f3a565b92915050565b6000602082840312156140d557600080fd5b60006140e384828501614045565b91505092915050565b600080604083850312156140ff57600080fd5b600061410d85828601614045565b925050602061411e85828601614045565b9150509250929050565b60008060006060848603121561413d57600080fd5b600061414b86828701614045565b935050602061415c86828701614045565b925050604061416d8682870161406f565b9150509250925092565b600080600080600080600060e0888a03121561419257600080fd5b60006141a08a828b01614045565b97505060206141b18a828b01614045565b96505060406141c28a828b0161406f565b95505060606141d38a828b0161406f565b94505060806141e48a828b01614099565b93505060a06141f58a828b0161405a565b92505060c06142068a828b0161405a565b91505092959891949750929550565b6000806040838503121561422857600080fd5b600061423685828601614045565b92505060206142478582860161406f565b9150509250929050565b60008060008060008060c0878903121561426a57600080fd5b600061427889828a01614045565b965050602061428989828a0161406f565b955050604061429a89828a0161406f565b94505060606142ab89828a01614099565b93505060806142bc89828a0161405a565b92505060a06142cd89828a0161405a565b9150509295509295509295565b600080604083850312156142ed57600080fd5b60006142fb85828601614045565b925050602061430c85828601614084565b9150509250929050565b60006020828403121561432857600080fd5b60006143368482850161406f565b91505092915050565b60006020828403121561435157600080fd5b600061435f848285016140ae565b91505092915050565b61437181614de0565b82525050565b61438081614df2565b82525050565b61438f81614dfe565b82525050565b6143a66143a182614dfe565b614eac565b82525050565b60006143b782614db9565b6143c18185614dc4565b93506143d1818560208601614e79565b6143da81614eb6565b840191505092915050565b60006143f2602183614dc4565b91507f5066783a3a64656c656761746542795369673a20696e76616c6964206e6f6e6360008301527f65000000000000000000000000000000000000000000000000000000000000006020830152604082019050919050565b6000614458602683614dc4565b91507f4f776e61626c653a206e6577206f776e657220697320746865207a65726f206160008301527f64647265737300000000000000000000000000000000000000000000000000006020830152604082019050919050565b60006144be603b83614dc4565b91507f5066783a3a5f7472616e73666572546f6b656e733a2063616e6e6f742074726160008301527f6e736665722066726f6d20746865207a65726f206164647265737300000000006020830152604082019050919050565b6000614524600283614dd5565b91507f19010000000000000000000000000000000000000000000000000000000000006000830152600282019050919050565b6000614564602583614dc4565b91507f5066783a3a64656c656761746542795369673a207369676e617475726520657860008301527f70697265640000000000000000000000000000000000000000000000000000006020830152604082019050919050565b60006145ca601983614dc4565b91507f5066783a3a7065726d69743a20756e617574686f72697a6564000000000000006000830152602082019050919050565b600061460a601e83614dc4565b91507f5066783a3a7065726d69743a20696e76616c6964207369676e617475726500006000830152602082019050919050565b600061464a601e83614dc4565b91507f5066783a3a7065726d69743a207369676e6174757265206578706972656400006000830152602082019050919050565b600061468a602683614dc4565b91507f5066783a3a6765745072696f72566f7465733a206e6f7420796574206465746560008301527f726d696e656400000000000000000000000000000000000000000000000000006020830152604082019050919050565b60006146f0602083614dc4565b91507f4f776e61626c653a2063616c6c6572206973206e6f7420746865206f776e65726000830152602082019050919050565b6000614730603383614dc4565b91507f5066783a3a7365744465764665653a206e65772064657620666565206578636560008301527f656473206d6178696d756d2064657620666565000000000000000000000000006020830152604082019050919050565b6000614796602583614dc4565b91507f5066783a3a64656c656761746542795369673a20696e76616c6964207369676e60008301527f61747572650000000000000000000000000000000000000000000000000000006020830152604082019050919050565b60006147fc601f83614dc4565b91507f436f6e7472616374206973206c6f636b656420756e74696c20372064617973006000830152602082019050919050565b600061483c603683614dc4565b91507f5066783a3a7365744275726e4665653a206e6577206275726e2066656520657860008301527f6365656473206d6178696d756d206275726e20666565000000000000000000006020830152604082019050919050565b60006148a2602383614dc4565b91507f596f7520646f6e27742068617665207065726d697373696f6e20746f20756e6c60008301527f6f636b00000000000000000000000000000000000000000000000000000000006020830152604082019050919050565b61490481614e28565b82525050565b61491381614e32565b82525050565b61492281614e42565b82525050565b61493181614e67565b82525050565b61494081614e4f565b82525050565b600061495182614517565b915061495d8285614395565b60208201915061496d8284614395565b6020820191508190509392505050565b60006020820190506149926000830184614368565b92915050565b60006020820190506149ad6000830184614377565b92915050565b60006020820190506149c86000830184614386565b92915050565b600060c0820190506149e36000830189614386565b6149f06020830188614368565b6149fd6040830187614368565b614a0a60608301866148fb565b614a1760808301856148fb565b614a2460a08301846148fb565b979650505050505050565b6000608082019050614a446000830187614386565b614a516020830186614368565b614a5e60408301856148fb565b614a6b60608301846148fb565b95945050505050565b6000608082019050614a896000830187614386565b614a966020830186614386565b614aa360408301856148fb565b614ab06060830184614368565b95945050505050565b6000608082019050614ace6000830187614386565b614adb6020830186614919565b614ae86040830185614386565b614af56060830184614386565b95945050505050565b60006020820190508181036000830152614b1881846143ac565b905092915050565b60006020820190508181036000830152614b39816143e5565b9050919050565b60006020820190508181036000830152614b598161444b565b9050919050565b60006020820190508181036000830152614b79816144b1565b9050919050565b60006020820190508181036000830152614b9981614557565b9050919050565b60006020820190508181036000830152614bb9816145bd565b9050919050565b60006020820190508181036000830152614bd9816145fd565b9050919050565b60006020820190508181036000830152614bf98161463d565b9050919050565b60006020820190508181036000830152614c198161467d565b9050919050565b60006020820190508181036000830152614c39816146e3565b9050919050565b60006020820190508181036000830152614c5981614723565b9050919050565b60006020820190508181036000830152614c7981614789565b9050919050565b60006020820190508181036000830152614c99816147ef565b9050919050565b60006020820190508181036000830152614cb98161482f565b9050919050565b60006020820190508181036000830152614cd981614895565b9050919050565b6000602082019050614cf560008301846148fb565b92915050565b6000602082019050614d10600083018461490a565b92915050565b6000604082019050614d2b600083018561490a565b614d386020830184614937565b9392505050565b6000602082019050614d546000830184614919565b92915050565b6000602082019050614d6f6000830184614928565b92915050565b6000602082019050614d8a6000830184614937565b92915050565b6000604082019050614da56000830185614928565b614db26020830184614928565b9392505050565b600081519050919050565b600082825260208201905092915050565b600081905092915050565b6000614deb82614e08565b9050919050565b60008115159050919050565b6000819050919050565b600073ffffffffffffffffffffffffffffffffffffffff82169050919050565b6000819050919050565b600063ffffffff82169050919050565b600060ff82169050919050565b60006bffffffffffffffffffffffff82169050919050565b6000614e7282614e4f565b9050919050565b60005b83811015614e97578082015181840152602081019050614e7c565b83811115614ea6576000848401525b50505050565b6000819050919050565b6000601f19601f8301169050919050565b614ed081614de0565b8114614edb57600080fd5b50565b614ee781614dfe565b8114614ef257600080fd5b50565b614efe81614e28565b8114614f0957600080fd5b50565b614f1581614e32565b8114614f2057600080fd5b50565b614f2c81614e42565b8114614f3757600080fd5b50565b614f4381614e4f565b8114614f4e57600080fd5b5056fe5066783a3a617070726f76653a20616d6f756e74206578636565647320393620626974735066783a3a5f7472616e736665725374616e646172643a207472616e7366657220616d6f756e7420657863656564732062616c616e63655066783a3a5f7472616e736665725374616e646172643a20646576207472616e73666572206661696c65645066783a3a5f7472616e736665725374616e646172643a206275726e206661696c65645066783a3a5f6d6f7665566f7465733a20766f746520616d6f756e7420756e646572666c6f77735066783a3a5f7472616e736665725374616e646172643a206275726e2063616c63756c6174696f6e206661696c65645066783a3a5f6d6f7665566f7465733a20766f746520616d6f756e74206f766572666c6f77735066783a3a5f7472616e736665725374616e646172643a207472616e7366657220616d6f756e74206f766572666c6f7773202d20315066783a3a5f7772697465436865636b706f696e743a20626c6f636b206e756d626572206578636565647320333220626974735066783a3a5f7472616e736665725374616e646172643a207472616e7366657220616d6f756e74206f766572666c6f7773202d20325066783a3a7065726d69743a20616d6f756e74206578636565647320393620626974735066783a3a5f7472616e736665725374616e646172643a20746f74616c20737570706c7920726564756374696f6e206661696c65645066783a3a7472616e736665723a20616d6f756e74206578636565647320393620626974735066783a3a5f7472616e736665724578636c756465643a207472616e7366657220616d6f756e7420657863656564732062616c616e6365536166654d6174683a206469766973696f6e206279207a65726f202875696e743936295066783a3a5f7472616e736665725374616e646172643a207472616e7366657220616d6f756e74206f766572666c6f7773202d20335066783a3a5f7472616e736665724578636c756465643a207472616e7366657220616d6f756e74206f766572666c6f77735066783a3a7472616e7366657246726f6d3a207472616e7366657220616d6f756e742065786365656473207370656e64657220616c6c6f77616e6365a26469706673582212200450e4f1924690bf9289365a304cc1ffca6cb131f8d966b52f6e17dd7dde3ffd64736f6c634300060c0033",
  "linkReferences": {},
  "deployedLinkReferences": {}
}